S015000048656C6C6F544C4335393733312E737265632F
S11300000C945A000C9464000C9464000C946400E6
S11300100C9464000C9464000C9464000C946400CC
S11300200C9464000C9464000C9464000C946400BC
S11300300C9464000C9464000C9464000C946400AC
S11300400C9464000C9464000C9464000C9464009C
S11300500C9464000C9464000C9464000C9464008C
S11300600C9464000C9464000C9464000C9464007C
S11300700C9464000C9464000C9464000C9464006C
S11300800C9464000C9464000C9464000C9464005C
S11300900C9464000C9464000C9464000C9464004C
S11300A00C9464000C9464000C9464000C9464003C
S11300B00C94640011241FBECFEFD8E0DEBFCDBF87
S11300C00E94B2000C94E0000C9400002C9A089555
S11300D02C980895CF93C82F0E94660085E08A95D6
S11300E0F1F700000E94680085E08A95F1F70000AE
S11300F0CC2369F00E94660085E08A95F1F7000040
S11301000E94680085E08A95F1F7000004C085E14B
S11301108A95F1F70000CF910895CF93C82F807886
S11301200E946A008C2F80740E946A008C2F807257
S11301300E946A008C2F80710E946A008C2F887044
S11301400E946A008C2F84700E946A008C2F827037
S11301500E946A008C2F81700E946A00CF910895DA
S1130160249A0895CF93DF9300D000D0CDB7DEB7A3
S11301700E94B0008AE3898381E88A838B838C831D
S11301800E94660085E08A95F1F700000E946800ED
S1130190E5E0EA95F1F70000F5E1FA95F1F70000E2
S11301A08E010F5F1F4F7E0185E0E80EF11CF80100
S11301B081918F010E948D000E151F05C1F7FFCF9D
S10701C0F894FFCFDD
S9030000FC
